:020000040000fa
:080000000001040000000000f3
:020000040000fa
:10020000cf982000807922000001880000000000c3
:10021000050007000c000700880a0200000000002b
:100220000040da000000fe004440a900c043200066
:100230000000e0000300320000002000a001880060
:100240004440a8000000060040a02100010020005a
:100250001600370062004000e080480091018800ed
:100260009001ba0062004000e080480091018800df
:100270009002ba0062004000e08048000002eb00fb
:100280006028e10005003a008301e900070033001f
:10029000038009000059eb00040037006128e100e9
:1002a000010032000082eb00050007009101880088
:1002b0001001ba000200e000e6ff3a00000005006d
:1002c000910188008002780062004000e0804800d0
:1002d0003559ba008301e900080032002559ba00f7
:1002e0008301e900050032000400e000f4ff320061
:1002f00015d9ba008301e900f1ff3a0000000600b9
:10030000889fbe008a9fbe00010578000100e000c2
:100310000400350008003c000000e000200032002e
:100320000500370060001000e080180002003b006c
:1003300001f02c001a0037000004be006011b80064
:100340006b0920000982cf00020039000882cf002b
:100350000441b000694252000e00320008003b0028
:1003600082817100610164008904d1000884d30096
:100370008b05e8000442e800f9ff3a000500370069
:100380000804440089844c008b05e9000442e9001c
:10039000fbff3a000d0107000af0a70001f0a000e2
:1003a0004f05be004f04be000000060003f0a2008f
:1003b000889fbe008a9fbe008c1f7800290107001d
:1003c000300133006450e1004f0032006420e1004e
:1003d0005200320003826c0007003b000905d00088
:1003e0000306d000820f54000c065d0002003900a5
:1003f00002003200890178000306780085825500ea
:1004000004003d000003fd008103fd008502ea00b9
:100410008b854200840f720002003b0060001000d8
:10042000e08018006011b8000005eb007a28e100b8
:100430000a00390006007800c75ddd00f707b2004a
:10044000878075002d003700828171000a017800d5
:10045000610560008180d1000080d3008502e90041
:10046000f9ff3b00060440008784480002003b007f
:1004700060041400e0841c000988a3000700320017
:100480008a81710082817100610164008904d10058
:100490000884d3008b05e800170037000978a30013
:1004a00013003a000b00e000130034008b05e90054
:1004b0000804440089844c000a4474000978a300ad
:1004c0000d003a000b00e000070034008b05e90046
:1004d0000804440089844c0001003a000b0020000d
:1004e0000978a300f7ff32000001eb00020037009b
:1004f000828171000a017800b40007000cf0a700a7
:1005000001f0a000e80037006420e10002003a009a
:10051000838f6c00e80033000801be000200be00bb
:10052000e1003700f4ff2f00e6003700889fbe008f
:100530008a9fbe008c1f7800ca000700d1003300dc
:1005400003866c006450e1002e0032006420e1005c
:10055000330032006150e1002f0032006120e100e1
:100560003100320085855500eb07b00009002000fe
:1005700008042000050037000804440089844c006a
:100580000a0031000603430087834b00000153003b
:1005900081815b00f8ff33000203be000800a00069
:1005a0000804440089844c00f6ff3900c639dd0098
:1005b0008301730001003200130020008904d10080
:1005c0000884d3000998a300050032000800a700a2
:1005d0000300a0008904d1000884d3008b05e80043
:1005e0008904d1000884d3000001eb000281d2000d
:1005f0007600070001f0a1000cf0a70001f0a000b8
:10060000a90037006420e100ab0032000801be0001
:100610000200be00f7ff37006120e100a6003200b3
:100620006000b800f3ff37000000200001f8270049
:10063000f0ff3700889fbe008a9fbe008c1f7800a5
:10064000880007008f00330003866c006450e100cf
:10065000240032006420e100270032006150e100f4
:10066000220032006120e100210032008b8542002f
:10067000eb07b1000134b800003ab80008044200aa
:1006800089844a00013ab8000030b80088804000f0
:1006900009014a0004003300000040008180480046
:1006a000020149008b05e900c909dd0083017000e2
:1006b0000100320013002000c814de004814dd00e1
:1006c0004709de001200b200c808de00088470008e
:1006d0003e00070001f0a1000cf0a70001f0a0000f
:1006e000710037006120e100730032000801be0094
:1006f0000200be00f7ff37006150e100fcff3a0046
:100700006d0037000001be00890007000470a700db
:1007100003f0a1006509b100160032000d0035009c
:100720006828e10006003500f0ff2f00f1ff2700e8
:100730000300e00013003b0001002800000005005a
:1007400000004000818048008502e900fcff3a007b
:1007500008003700f88f420002003c008000eb00e8
:10076000000005008100d1000080d3008502e80070
:10077000fcff3a000300e00002003b0060001000b4
:10078000e080180000000600140020004d00370033
:10079000839f68000100e00002003d00600010003f
:1007a000e08018000300e00002003d00600111003d
:1007b000e0811900730007004f00e00002003b00d9
:1007c00060001000e080180000000600810020009a
:1007d000618055000b003d000b00200061fe2f00e2
:1007e0000100e1001d00340082817100610164009c
:1007f0008904d1000884d3000000e800faff3a0021
:1008000071002000610064000300700002006000bd
:100810000900320061044400e0844c000988a5000e
:10082000050032008b05e8006808e10002003a008c
:100830008904d1000884d300f20f20000258e1009f
:1008400005003d00c75ddd00f907b2008980750035
:1008500008007800000006000bf827008b007800e5
:10086000000005000004be00310007000003be00c8
:100870000405be000200be002d000700844f750075
:10088000000006000200be006450e10005003600d2
:100890006420e100020036000968a30001003a006c
:1008a0000800be000160a0004f0678004f05be00a2
:1008b0004f04be0000000600f0ff2f00f1ff2700ec
:1008c000f9ff3700889fbe008a9fbe00841f780012
:1008d000e4ff07004f00780011003300f0ff2f0005
:1008e000838f6c0006003b00040565000a00a7002a
:1008f0000800370009f0a6001000200008003700ab
:10090000820f5400838f5c00030039001000200028
:1009100001003e000000200009f0a7000000ea00ee
:100920004f05be004f04be000000e00000000600be
:10093000c70ade00f107b200f50fb200080032006e
:10094000e1cf4200020032000170a0002400050047
:10095000810f70000100320004080500440005000a
:10096000810f700002003a00140005008502e900c2
:100970000000400081c04800fcff3b000170a00067
:10098000240005006022b800060220000000d0000c
:100990008180d2000482d2008582d2000000a000b3
:1009a0000202520083825a0003003b00020242000e
:1009b00083824a000000a1000603e900f3ff3a0029
:1009c000000006000200fa00000f78000040eb0073
:1009d000dee8b7000040eb00dfe8b7000040eb00c6
:1009e000e0e8b7000040eb00e1e8b7001e00e000df
:1009f00067003200303320009e0f100006003600e2
:100a0000dec8bf000040e800dee8b700c0cc2f0021
:100a10001e0f4000f5ff3700100520009e0f10004c
:100a200013003600303320009e0f100010003e00ef
:100a3000f08d200081c0b30090cf100004003c0076
:100a4000dfc8bf000040e800dfe8b700050037005e
:100a5000dec8bf000040e800dee8b7000040eb0061
:100a6000dfe8b700e0fa2f001e0f4000dfff37007d
:100a7000810020009e8f10001d0036001005200010
:100a80009e0f10001a003e00008e200081c0b300af
:100a900090cf100004003c00e0c8bf000040e80018
:100aa000e0e8b7000f0037000040eb00e0e8b700d7
:100ab000f08d200081c0b30090cf100004003c00f6
:100ac000dfc8bf000040e800dfe8b70005003700de
:100ad000dec8bf000040e800dee8b7000040eb00e1
:100ae000dfe8b7001e007800690f5000bfff370035
:100af0001e00e000bdff3200810020009e8f10002c
:100b0000baff3e00108e200081c0b30090cf1000cd
:100b100004003c00e1c8bf000040e800e1e8b70085
:100b2000190037000040eb00e1e8b700008e20001c
:100b300081c0b30090cf100004003c00e0c8bf00ab
:100b40000040e800e0e8b7000f0037000040eb008d
:100b5000e0e8b700f08d200081c0b30090cf100016
:100b600004003c00dfc8bf000040e800dfe8b70039
:100b700005003700dec8bf000040e800dee8b7002f
:100b80000040eb00dfe8b7001e0fe90097ff3700d9
:100b9000dec8bf000043b000dee8b700dfc8bf001a
:100ba0000043b000dfe8b700e0c8bf000043b0007a
:100bb000e0e8b700e1c8bf000043b000e1e8b700db
:100bc0000080fa00000006000400fa00008fbe005a
:100bd0000040eb00e2e8b7000040eb00e3e8b700bc
:100be0000040eb00e4e8b7000040eb00e5e8b700a8
:100bf0000040eb00e6e8b7001e00be00e00f50002a
:100c0000e08f5800b8003200f07022000100200090
:100c1000be0f1000ae8f180008003600e2c8bf00fb
:100c20000040e800e2e8b700008f2d00f1ff2f0040
:100c30001e0f40005e974800efff3700703e200017
:100c400001002000be0f1000ae8f18001700360004
:100c5000f070220001002000be0f1000ae8f1800bf
:100c600012003e00308e200081c0b30090cf1000f3
:100c700004003c00e3c8bf000040e800e3e8b70020
:100c800005003700e2c8bf000040e800e2e8b70016
:100c90000040eb00e3e8b70080c12f00f1ff2f0018
:100ca0001e0f40005e974800d3ff3700300620003b
:100cb00001002000be0f1000ae8f1800210036008a
:100cc000703e200001002000be0f1000ae8f180003
:100cd0001c003e00408e200081c0b30090cf100069
:100ce00004003c00e4c8bf000040e800e4e8b700ae
:100cf0000f0037000040eb00e4e8b700308e200022
:100d000081c0b30090cf100004003c00e3c8bf00d6
:100d10000040e800e3e8b70005003700e2c8bf0084
:100d20000040e800e2e8b7000040eb00e3e8b7006d
:100d3000c0f92f00f1ff2f001e0f40005e97480002
:100d4000adff37009000200001002000be0f100012
:100d5000ae8f18002b003600300620000100200066
:100d6000be0f1000ae8f180026003e00508e2000ef
:100d700081c0b30090cf100004003c00e5c8bf0064
:100d80000040e800e5e8b700190037000040eb003c
:100d9000e5e8b700408e200081c0b30090cf10007e
:100da00004003c00e4c8bf000040e800e4e8b700ed
:100db0000f0037000040eb00e4e8b700308e200061
:100dc00081c0b30090cf100004003c00e3c8bf0016
:100dd0000040e800e3e8b70005003700e2c8bf00c4
:100de0000040e800e2e8b7000040eb00e3e8b700ad
:100df00060ff2f00f1ff2f001e0f40005e9748009c
:100e00007dff37001e00be00e00f5000e08f58004d
:100e100079ff32009000200001002000be0f10007a
:100e2000ae8f180074ff3e00608e200081c0b300ba
:100e300090cf100004003c00e6c8bf000040e8006e
:100e4000e6e8b700230037000040eb00e6e8b70013
:100e5000508e200081c0b30090cf100004003c00f1
:100e6000e5c8bf000040e800e5e8b700190037001a
:100e70000040eb00e5e8b700408e200081c0b300e1
:100e800090cf100004003c00e4c8bf000040e80020
:100e9000e4e8b7000f0037000040eb00e4e8b700db
:100ea000308e200081c0b30090cf100004003c00c1
:100eb000e3c8bf000040e800e3e8b70005003700e2
:100ec000e2c8bf000040e800e2e8b7000040eb00e5
:100ed000e3e8b7000080eb008080eb001e0f4000cd
:100ee0005e97480044ff3700e2c8bf000043b000ef
:100ef000e2e8b700e3c8bf000043b000e3e8b70092
:100f0000e4c8bf000043b000e4e8b700e5c8bf0094
:100f10000043b000e5e8b700e6c8bf000043b000fa
:100f2000e6e8b7000080fa00000006006446800092
:100f300075468000f544880096ed26008502ea009b
:100f40008500ca001201c1000000cc0000458800e5
:100f50008500ca001241c1000000cc001045880085
:100f600000000600749e2400e64580001301c100c5
:100f7000f74580001201c2001201c200e645800060
:100f8000064688000700cc0017468800c44580004c
:100f9000d54580001301c2001201c400438c20001b
:100fa0003300cc001301c5001241c1001300cc0076
:100fb00000000600829fbe00849fbe00869fbe0088
:100fc0000603200045002000f2002000820160009e
:100fd0004400de006918e10001003400e7814100af
:100fe00006824100841f78008502e900f7ff3a007d
:100ff0004f007800801878004f0078008018780043
:101000004f007800801878004f0078008018780032
:101010008100b1004f03be004f02be004f01be0071
:10102000000006006446800075468000a6ed26009c
:10103000844688000402ea008400ca001201c40049
:101040000000cc00904688008400ca001241c40011
:101050000000cc00a0468800000006004646800044
:1010600057468000c4458000d54580001301c40068
:101070001241c200c38c20003300cc001301c10018
:101080001201c5001300cc00000006000800fa00a1
:10109000000f7800214798003247980040982000c0
:1010a00020079800ae0090001e007800c1ff0700e6
:1010b000be4090002e409000940007000000eb001e
:1010c000300798003e009000e30f50000b003c00fa
:1010d000e400470011007800104178000080e8002b
:1010e0008008780002407800940007003e009000dd
:1010f0000000e80030079800f2ff37000080fa0097
:10110000000006000600fa00000f78002147980052
:10111000324798000040eb0040479800be409000e6
:101120002e409000790007004e4090000080fb00a8
:101130001e0040001004e000090032004e40900004
:101140000080fb001e004000104078007b0007007c
:101150004e4090000040e80040479800f2ff370002
:101160000080fa00000006000400fa00000f78007a
:1011700021479800324798001e00e00001003d0022
:101180001e0fea001e007800cf80de008efe0700f2
:10119000e3c8bf0069000700e4c8bf00670007009c
:1011a000e5c8bf0065000700e6c8bf006300070090
:1011b0000080fa00000006000000fa000080eb004a
:1011c000a00007000080eb009e0007000080eb00fd
:1011d0009c0007000080eb009a000700b116800019
:1011e00000ff2f00008060003000b300b0168800c0
:1011f0009116800000ff2f0000806000901688008c
:10120000d022a900d7a2a800400120008d0007002d
:10121000d7a2a9000080eb008a000700b116800069
:1012200000ff2f00008060003000b300b01688007f
:10123000d7a2a8004001200082000700d7a2a90081
:10124000b116800000ff2f00008060003000b30066
:10125000b01688009116800000ff2f00008060000b
:1012600090168800d022a9005000200075000700c9
:10127000d7a2a8004001200072000700d7a2a90051
:10128000001920006f000700b116800000ff2f003a
:10129000008060000010a000b0168800d7a2a8004f
:1012a0004001200067000700d7a2a90080c2b30058
:1012b0002800070060c0b30026000700c0c0b300cc
:1012c0002400070010c0b3002200070000c8b300cc
:1012d000200007000080fa00000006000000fa006d
:1012e00020c0b3001b0007000080fa0000000600c9
:1012f0000000fa0020c0b3001600070010c0b300c1
:10130000140007000080fa00000006000200fa0046
:10131000004f7800114798001e4090000080fb00ad
:101320004600dd009e40700000c8b30000c07000a1
:10133000080007000080fa00000006000200fa0022
:10134000004f78001e4078000b0007000080fa0074
:10135000000006000200fa00004f78000071220031
:1013600038000700d062a9001e4078000b0007007b
:101370000080fa00000006000200fa00004f78002a
:10138000007122002f000700d062a8001e407800e4
:10139000020007000080fa00000006000200fa00c8
:1013a000004f78001e40780010479800b11680006a
:1013b00000ff2f00808060001e4090000080fb0036
:1013c0004400de000080fb006f00600000807000c1
:1013d000b01688009116800000ff2f00008060008a
:1013e00090168800d022a900d7a2a80040012000b2
:1013f00014000700d7a2a900400120001100070037
:10140000b116800000ff2f00808060001e80fb006e
:101410006f00600000807000b0168800d022a90024
:10142000d7a2a8004001200006000700d7a2a9000b
:1014300090168000f000b300901688000080fa003b
:10144000000006000200fa00000f78001e0fe900fd
:101450000080eb009e0f1000fcff3a000080fa00b5
:1014600000000600e4468000d54680001301c0005d
:101470000400cc00c4468800b54680000502420046
:10148000b446880000000600d628ef00d828ef00f8
:10149000000006001108980000000600f00390000c
:1014a000800a9000058253005080ca00c002780074
:1014b00045018800a00290001301c0007c00c80014
:1014c0000000cb000600cc00d00090000130e1000d
:1014d00004003c00e00090000130e1000100340015
:1014e0008600780011089800b00290001301c00037
:1014f00001035300c00290001241c4000000cb0061
:101500005000cc0015018000052078000000060086
:101510000c00fa00c0932000fc0507009b070700a1
:1015200025ff0700320307000000eb00404788005a
:10153000e888a800c522a9000000eb00000f780091
:10154000404780004400de00610060000000e000d1
:1015500002003a0011002000010f78009e40780040
:1015600061c060004201dd00512c200091407800f4
:10157000b0cfb30000c0600002407000c5e2b70009
:10158000c5c2a900c5e2a900a2010700fb0107002e
:101590000004e000d6003a006000b800b0488800bf
:1015a000c14888006000b800704788008147880003
:1015b0006000b80010488800214888000000eb0057
:1015c000b04988000041eb008040eb0000b02900ea
:1015d000ccfe070012c0b3008040eb0010b1290020
:1015e000c8fe07008560a9008d60a8004047800004
:1015f0004500de00610060000000e00014003a00d9
:10160000e6c2bf000080fb004600de000080fb0059
:10161000610060000000e000030032000060fe0096
:10162000ac060700f6ff370000000000e6c2bf006e
:101630000080fb004600de000080fb0061006000cf
:101640000000e000f9ff3200cc010700e8a8a80084
:10165000e988a800d562a9000041eb008040eb00ba
:1016600020b22900a7fe070012c0b3008040eb00a3
:1016700030b32900a3fe07000060fe00d0498000bf
:10168000cf80de001efb070010079800210798009e
:101690003a09e20007003d00020020000378240020
:1016a0001e009000ae00900041fb0700100798005c
:1016b0002107980012002000a34f24001e00900074
:1016c000ae00900097fb07000000e000eaff350045
:1016d0008040eb0050c0b3005e010700e6c2bf00cf
:1016e0000080fb004600de000080fb00610060001f
:1016f0000000e00007003a00404780004700de009d
:10170000610060000000e0000b003a00e8e8a8007b
:1017100009003700404780004700de00610060009c
:101720000000e00004003200e8e8a900e8a8a900f1
:10173000d562a8007cff3700e6c2bf000080fb0036
:101740004700de000080fb000000e00007003a00d8
:10175000404780004800de00610060000000e000bb
:101760002c003a00e908a8002a0037004047800012
:101770004800de00610060000000e000250032004b
:10178000e908a900e988a8000000eb0030079800ec
:10179000404780004400de00610060000000e0007f
:1017a00002003a001100200031079800be009000ae
:1017b000618060004401dd0041478000f0fe2f00a1
:1017c0000080600002007000404788000000eb00cd
:1017d00040079800404780004400de006100600040
:1017e0000000e00002003a001100200041079800cc
:1017f0008e48900061c060004201dd00512c200045
:1018000091407800b0cfb30000c06000024070008b
:10181000c5e2b700e7c2bf000080fb0061006000c6
:101820000000e00008003a00404780004900de0068
:10183000610060000000e00001003a00e928a80013
:10184000e802a90022003700404780004900de007e
:10185000610060000000e0001d003200e928a900de
:101860000000eb0050079800404780004d00de006c
:10187000610060000000e00002003a00110020005a
:1018800051079800de009000618060004d01dd008e
:1018900041478000f0ff2d000080600002007000d2
:1018a00040478800404780004d00de006100600036
:1018b000614060004601dd00512c2000914078001d
:1018c000f0cbb30000c0600002407000c5e2b7007a
:1018d000404780004300de00610060000000e0003f
:1018e00065ff3200e868a900c5e2a90062ff370081
:1018f000e8a8a9000080fa00000006000400fa0031
:10190000a09220006c020700404780004400de00e7
:10191000610060000000e0004d00320040478000a0
:101920004c00de00610060000000e0002b0032008f
:10193000e988a9000000eb00a04588000000eb004a
:1019400090458800e848a8000000eb00504b880054
:101950006000b800304b8800414b88000000eb006d
:10196000e04988000000eb00f04988000000eb002f
:10197000004a88000000eb00104a88000000eb00dd
:10198000304a88000000eb00504a88000000eb005d
:10199000604a88000000eb00704a88000000eb00fd
:1019a000804a88000000eb00904a88000000eb00ad
:1019b000a04a88000000eb00b04a88000000eb005d
:1019c000d04a88000000eb00e04a88000000eb00ed
:1019d000104b88000000eb00204b88003014800082
:1019e000a2002000110009000280d8008045880074
:1019f0007609e20003003a005d060700204b8000f4
:101a00009048880082458000a245880030468000ca
:101a1000f0478800a2458000e2478800e08e200061
:101a20009efe070000488000504688002246800045
:101a3000324988009045800020498800609120004c
:101a400096fe070042498000424688003e0037006b
:101a5000404780004d00de00610060000000e000b3
:101a600006003200604980003200200011000900a9
:101a70000200d800804588000500370060498000da
:101a800062002000110009000200d8008045880093
:101a9000404780004c00de00610060000000e00074
:101aa0000e003200e988a900a0458000cf80de004a
:101ab0004d09dd00c300de00810071004d00dd0036
:101ac00010488800214888000000eb00504b880037
:101ad0006000b800304b8800414b88007609e20076
:101ae00009003a0022060700204b80009048880039
:101af00082458000824888002090200067fe070011
:101b0000a0488000a045880032468000f247880047
:101b1000a0458000e0478800e08e20005ffe0700bf
:101b200002488000524688002046800030498800e4
:101b300092458000224988006091200057fe0700ee
:101b400040498000404688000080fa0000000600fe
:101b50003600f800809fbe00829fbe00849fbe00ba
:101b6000869fbe000000fa00e602a8008560a9007a
:101b7000d04980000000e800d0498800db0507005c
:101b8000404780004500de00610060000000e0008a
:101b900018003200c522a8000000eb0000088800f1
:101ba00000088000c04988004a0507004801070076
:101bb000ecfc070051ff07000b02070027fd0700a0
:101bc000dafc0700c201070001088000c04980005c
:101bd00000805000c0498800c1498000b0498000a1
:101be000808f500002003600c0498000b049880054
:101bf000c522a900e602a9000080fa004f03be003a
:101c00004f02be004f01be004f00be003600f9007b
:101c1000004006000200fa008d60a900db22a80047
:101c20000040eb00004f780090c0b3009e4f1000c2
:101c300003003e00000000001e4fe800faff3700de
:101c4000db22a900d4a2a900d482a9000080fa0056
:101c5000000006000200fa00004f780011479800cb
:101c60008209e20005003d001e4190009e40780080
:101c700040b4290023fd0700040037001e419000f6
:101c80009e40780060b429001efd07007049800066
:101c900080498800104c8000cf80de0098f9070052
:101ca000020020000370240020fa07000200200038
:101cb000032724005ffa070092fa0700cf80de00b6
:101cc0008ff90700c2cc2c00c3bc230017fa070011
:101cd0008cfa0700704988007149800080498000b3
:101ce000008040000080d100704988001e419000b3
:101cf0009e407800704980001bfd07007809e200d3
:101d000006003d001e407800e64040001e41900065
:101d100040b42900fbfc0700050037001e40780096
:101d2000e64040001e41900060b42900f5fc070029
:101d300090498000a0498800c04b8000a205200087
:101d4000110009000200d8009049880091498000e4
:101d5000a0498000008040000080d10090498800a8
:101d60001e407800e74040001e41900090498000ee
:101d7000fdfc07000080fa00000006000600fa00e3
:101d8000889fbe0044e0a90050002000b0428800b7
:101d900070712b00118523000043880011438800d7
:101da00000438000114380002043880031438800b5
:101db0004001200040438800c0428000cf80de0008
:101dc0004ff907000200200003272400d7f907007d
:101dd0005043880061438800b0428000cf80de001d
:101de00047f90700524380006343800011fa07005f
:101df00070438800814388007243800083438000e1
:101e000000438000114380000afa0700d043880095
:101e1000e143880062e52000930c240070438000b9
:101e20008143800003fa070090438800a1438800a3
:101e3000d0428000cf80de0031f907000004be00f0
:101e4000c0428000cf80de002df907000200200094
:101e500003272400b5f907000001be000800be00fa
:101e6000f4f9070027fa0700f043880001448800ce
:101e7000714b8000b0428000000cb8006140b90096
:101e80001ff9070010079800210798000800e000dc
:101e900007003d0002002000037824001e0090008f
:101ea000ae00900042f90700100798002107980043
:101eb00072712b00138523001e009000ae0090006d
:101ec000dcf907000200200003782400d9f907009c
:101ed000020020000327240094f9070009fa0700f4
:101ee0002044880031448800204480003144800030
:101ef000024020000202b8000001eb000283b9009a
:101f00000501780006014100034020000388b90064
:101f10000001410082027800244488003544880092
:101f2000614b8000114488008a0407000004e0002f
:101f30000300320010002000000f7800600037001e
:101f4000f0ff230050498800f0ff2300204588005f
:101f5000f0ff2300504588008000eb000000eb00fc
:101f600077040700c1892000205c200080087800e9
:101f70000080eb001008880005e1a8004110200057
:101f800091407800f0ccb30000c060000044a00095
:101f900004e1b7000000eb00b00e88000000eb0089
:101fa000c00e88000000eb00d00e88000000eb009f
:101fb000e00e8800102e2000200e88007007200000
:101fc000400e8800a0032000600e88000000eb0097
:101fd000700e88000000eb00800e88000000eb000f
:101fe000900e880088e0a90090e0a9002000280059
:101ff000000e8800210e8000310e8800c7e1a90084
:102000000000eb0000158800a1c2bf003040b30003
:10201000a1e2b700a0c2bf007f40600001c6b300cc
:1020200001407000a0e2b700a062a800a042a80092
:102030000000eb0010158800312a20009140780044
:10204000c0cfb30000c060000014a000a3e2b7003e
:102050000000eb0020158800412a20009140780004
:1020600000ccb30000c06000f040b300a4e2b700b1
:102070000000eb0030158800612a200091407800b4
:1020800000cfb30000c060007040b300a6e2b7000c
:10209000a6a2a9000080eb0040158800a802a900b4
:1020a000a822a900a842a900a8e2a9000000eb000c
:1020b00050158800a1e2a8000000eb00000f780096
:1020c0001e0078004f04be000080fa0000000600e9
:1020d0000200fa0000468000a04a880011468000f5
:1020e000d14a880062468000e2498800704680003c
:1020f000504a8800c09320003a0107004047800002
:102100004400de00610060000000e00034003200a6
:10211000514b8000604b8000808f500004003100e4
:10212000504b80000000e800504b88002200370030
:10213000324b8000434b80002044800031448000bb
:10214000800f5100818f590007003100304b800013
:10215000414b80006a004000e0804800304b88001e
:10216000414b880014003700e988a800e888a900de
:102170008000eb00010f7800404780004400de0043
:10218000610060000000e00002003a001200200040
:10219000020f78009e40780061c060004201dd00bf
:1021a000512c200091407800b0cfb30000c06000f7
:1021b00002407000c5e2b700304b8000414b800008
:1021c0004609dd004a00de0000007100ca08de009a
:1021d000b245800000004100b04588000200370091
:1021e000104b8000b04588000080fa000000060017
:1021f0000000fa0060662000d0488800400a2000f5
:10220000e0488800e0fd2700f0488800707f220049
:1022100000498800004980000000ea001049880059
:10222000609120009bfc07006066200090478800ba
:10223000400a2000a0478800e0fd2700b047880042
:1022400090992700c0478800c04780000000ea003e
:10225000d0478800e08e20008efc070060662000da
:10226000304888001002200040488800e0fd270028
:1022700050488800000025006048880060488000c1
:102280000000ea00704888002090200081fc0700d0
:102290000080fa0000000600000290000514800093
:1022a00005f0a2008502d1001301c0008407cc0014
:1022b0001400980000000600000290000514800041
:1022c0001301c0008407cc00140098000000060031
:1022d000f444800005458000164580000400e000bd
:1022e000190035000500e000070035008501780081
:1022f000040178002d000700b40e8800c50e880088
:10230000d60e8800000006000600e0000700350039
:10231000840178000601780024000700b60e8800ca
:10232000c40e8800d50e8800000006008501ea0072
:102330000601ea001d000700b50e8800c40e8800e3
:10234000d60e8800000006000500e00010003500f1
:102350000600e000070035008601780005017800de
:1023600012000700b50e8800c60e8800d40e880043
:10237000000006008601ea000401ea000b000700e5
:10238000b40e8800c60e8800d50e88000000060036
:102390008401ea000501ea0004000700b60e880087
:1023a000c50e8800d40e8800000006009c08d400ea
:1023b0000282b800050178000382b8008501780028
:1023c0009c88bf0082005000838050008180d10033
:1023d0000103780082804000810278008380400001
:1023e000010278000000060020028000a1018000a8
:1023f000809fbe004440a80000002000a00188008b
:10240000678b200000082000b70078000101b800a9
:102410008381410005c029000200e00009003a0064
:1024200005824100941b78000344b00005824100fe
:10243000940b78004f00be0020028800a1018800a4
:1024400000000600058241001403780083c1e80003
:1024500005824100140013000090b800869b4000e4
:10246000e343b00005824100058241001403780077
:1024700083c1e80005824100140013000090b800f9
:10248000868b40004f00be0020028800a10188001a
:10249000000006000600fa00000f780011079800ff
:1024a00022079800a0fa2f00370007002e009000a6
:1024b000350007001e0fe9000080eb009e0f1000a2
:1024c000080032000e80e8009000780011017800ca
:1024d0008180e80001087800020078002a000700e7
:1024e000f4ff37000080fa00000006000000fa0048
:1024f0000000eb00601088000000eb007010880006
:1025000070002000a01088000c0007000080fa0076
:10251000000006000000fa000000eb0060108800d8
:102520000000eb007010880010002000a010880050
:10253000020007000080fa00000006000000fa0018
:102540000de2a9000de2a8000f42a8000080fa00e9
:10255000000006000200fa00004f78000fc2bf0022
:102560000080fb000000d1000080fb0061006000e3
:102570000000e000f9ff3a001e80fb008010880098
:102580000080fa00000006000200fa00000f780048
:102590000fc2bf000080fb000000d1000080fb00e4
:1025a000610060000000e000f9ff3a001e80fb00bf
:1025b000801088000fc2bf000080fb000000d10027
:1025c0000080fb00610060000000e000f9ff3a00bd
:1025d0001e4090000080fb00801088000080fa0000
:1025e000000006000800fa00881f78002200f800aa
:1025f0002400f8002600f800000f78004400f800de
:1026000044e0a80044c0a8004480a8001e00780050
:1026100060009000d04b88001e00780050009000b1
:10262000e04b8800d44b8000e54b80001301c000d4
:102630001e00780010007800d04b88001e00780043
:1026400010009000e04b88001e00780030009000e1
:10265000f04b8800d04b8000e14b8000f24b8000b3
:102660000180ca000280c9000090cb000080c90030
:102670000480cd001e00780040009000d04b880000
:10268000d54b80001381c0000000cb000000cd00be
:10269000004c88001e007800014c8000510098001a
:1026a0001e00780060009000d04b88001e0078006b
:1026b00030089000e04b8800d44b8000e54b800050
:1026c0001301c0001e00780070009000d04b8800fd
:1026d0001e00780000089000e04b88001e00780083
:1026e00020089000f04b8800d04b8000e14b800028
:1026f000f24b80000180ca000280c9000090cb002c
:102700000080c9000480cd001e00780040009000c9
:10271000d04b8800d54b80001381c0000000cb0057
:102720000000cd00004c88001e007800014c8000a5
:10273000310898001e00780050009000d04b8800af
:102740001e00780040089000e04b8800d04b8000cd
:10275000e14b80000000ca000180ca000030cb00bd
:102760000000cd00004c88001e007800014c800065
:10277000510898001e00780030089000d04b880067
:102780001e00780070089000e04b8800d04b80005d
:10279000e14b80000000ca000180ca000030cb007d
:1027a0000000cd00004c88001e007800014c800025
:1027b000011098001e007800500890000000e00012
:1027c000050034009e0078001e007800600890002c
:1027d000b00098000d0037001e00780050089000ef
:1027e0000000e00004003a009e0078000000eb00ca
:1027f000b0009800050037009e0078001e007800a9
:10280000600890000000ea00b00098001e00780008
:10281000001090000000e000050034009e007800e9
:102820001e00780060089000a00898000d00370096
:102830001e007800001090000000e00004003a0044
:102840009e0078000000eb00a0089800050037000b
:102850009e0078001e007800600890000000ea00ea
:10286000a00898001e00780030009000d04b88002f
:102870001e00780010009000e04b88001e007800d9
:1028800010109000f04b8800d04b8000e14b80008e
:10289000f54b80000000ca000180ca000030cb0068
:1028a0000400cd001301c0000000cb000000cd00eb
:1028b000004c88001e007800014c80001100980038
:1028c0001e00780020089000d04b88001e00780081
:1028d00000089000e04b88001e0078001010900067
:1028e000f04b8800d04b8000e14b8000f54b80001e
:1028f0000000ca000180ca000030cb000400cd00f7
:102900001301c0000000cb000000cd00004c880087
:102910001e007800014c8000010898001e0078001d
:1029200010009000d04b88001e007800200090001e
:10293000e04b88001e00780020109000f04b8800cb
:10294000d04b8000e14b8000f54b80000000ca00b6
:102950000180ca000030cb000400cd001301c0008c
:102960000000cb000000cd00004c88001e00780065
:10297000014c8000210098001e00780000089000a3
:10298000d04b88001e00780010089000e04b8800b3
:102990001e00780020109000f04b8800d04b800083
:1029a000e14b8000f54b80000000ca000180ca00a6
:1029b0000030cb000400cd001301c0000000cb00ac
:1029c0000000cd00004c88001e007800014c800003
:1029d000110898004400f9001e0478001e007800d9
:1029e000200090008000ea001e007800100890008f
:1029f00030010700301498001e007800b0109000dd
:102a0000804b800080805000904b8000010040008f
:102a1000904b88001e00780030109000804b88009a
:102a2000b04b80000000e800b04b8800b04b800045
:102a3000f40f50000c003a00954b8000f4ff240086
:102a40001301c0000000cd00004c88001e0078007b
:102a5000014c8000411098000000eb00b04b880052
:102a60000000eb00904b88004400f80044e0a80010
:102a700044c0a8004480a8001e00780040109000c8
:102a8000d04b8800104c8000e04b88008014200060
:102a9000f04b8800d04b8000e14b8000f54b80006c
:102aa0000000ca000180ca000030cb000400cd0045
:102ab0001301c0000000cb000000cd00004c8800d6
:102ac000014c8000114c88004400f900114c80003a
:102ad000a06a2000808f50000c003c00154c800044
:102ae000f4a724001301c0000000cd00004c8800b2
:102af000004c8000c04b8800c14b8000104c80000f
:102b000000804000c04b880069003700114c8000f5
:102b100040d52000808f500012003c00154c8000f2
:102b2000f48725001301c0000000cd00004c880090
:102b3000014c8000c14b8800114c80003000200007
:102b40000088b900c24b800000004100c04b8800e3
:102b5000c04b8000011f2f0001004000c04b8800c7
:102b600053003700114c8000f03f2100808f50004f
:102b700011003c00154c800004e020001301c0004f
:102b80000000cd00004c8800004c8000c04b880045
:102b9000104c80008000d000c04b8000010040003d
:102ba000c04b8800c04b80008170200001004000b5
:102bb000c04b88003e003700114c800090aa2100d5
:102bc000808f500010003c00154c800004702000e5
:102bd0001301c0000000cd00004c8800004c8000b4
:102be000c04b8800c14b8000104c8000008040002a
:102bf000c04b8800c04b800001c221000100400092
:102c0000c04b88002a003700114c8000401522007c
:102c1000808f500010003c00154c8000f4a7240069
:102c20001301c0000000cd00004c8800004c800063
:102c3000c04b8800c14b8000104c800000804000d9
:102c4000c04b8800c04b800001e120000100400023
:102c5000c04b880016003700114c8000f07f220026
:102c6000808f500010003c00154c8000f4a7240019
:102c70001301c0000000cd00004c8800004c800013
:102c8000c04b8800c14b8000104c80000080400089
:102c9000c04b8800c04b800001e1200001004000d3
:102ca000c04b88000200370070d52400c04b88005c
:102cb0001e0178001e007800b0109000c04b80000c
:102cc00000804000301198002600f9002400f9002f
:102cd0002200f9004f0478000080fa00000006008e
:102ce0000600fa00000f7800110798009e00780097
:102cf0001e019000110009000208d9002007980069
:102d00002e0090000080fa00000006000e00fa007d
:102d1000000f780010732e0011f7230010079800a1
:102d2000210798006011b8001e009000ae009000ce
:102d300095f607000000e00004003d009e007800ca
:102d40000000eb00e0009800200037001e00780033
:102d5000300798006011b8001e009000ae0090008f
:102d600089f607000000e0000b003d000200200093
:102d7000037024001e009000ae0090002df60700a6
:102d80000200200003f0230088f507005df607002d
:102d9000400798000a00370002e02f00f36f24007c
:102da0001e009000ae00900022f6070002002000f6
:102db00003f023007ef5070052f607004007980055
:102dc0004e009000be009000e0009800600c2700cc
:102dd00041cb230010079800210798000200200033
:102de00003f823001e009000ae009000cdf5070010
:102df0000000e000040034009e007800f0ff27008f
:102e0000c0009800200037009e007800510798000d
:102e10006011b8001e009000ae0090005af6070046
:102e20000000e0000b003d000200200003702400c1
:102e30001e009000ae009000fef50700020020008a
:102e400003f0230059f507002ef6070060079800ed
:102e50000a00370002e02f00f36f24001e009000ec
:102e6000ae009000f3f507000200200003f02300fd
:102e70004ff5070023f6070060079800ee0090006a
:102e80005e009000410098009e007800c0cc2400b5
:102e9000e00898009e007800d0cc200090109800a8
:102ea0009e007800f0282000a01098000080fa0012
:102eb000000006000c00fa00000f780011079800cf
:102ec0001e00e000060035001e0090000000e0003b
:102ed000030035000040eb00404798001f0037001a
:102ee0001e00e00007003d001e0090000000e00012
:102ef0000400350010c0b300404798001e0fea00e0
:102f0000160037001e00e0000a003d001e00900081
:102f10000000e00007003d0020c0b30040479800db
:102f20001e0fea001e0090000000ea001007980043
:102f30000a0037001e00e000080035001e00900067
:102f40000000e00005003d0030c0b300404798009d
:102f50001e0090000000ea00100798000000eb003f
:102f6000300798000040eb00504798005e4090000a
:102f7000e94f500036003e001e0090000000e000c7
:102f800018003d005e4090008080fb001e00900015
:102f90000180de001e001000400798005e40900097
:102fa0008080fb001e0078008180de001e00900003
:102fb00001004000100798004e009000000f7800bc
:102fc00001d029005e4090000080fb000000d0008e
:102fd000810040003e009000110040003007980042
:102fe000170037005e4090008080fb001e009000bc
:102ff0000180de001e004000400798005e40900007
:103000008080fb001e0078008180de001e009000a2
:1030100001005000100798004e009000000f78004b
:1030200001d029005e4090000080fb000000d0002d
:10303000810040003e0090001100500030079800d1
:103040005e4090000040e80050479800c7ff3700fe
:103050004e4090000080fb00500798005e009000fa
:10306000e10f50000f0032005e009000e10f5000b1
:1030700004003c005e0090000000e000050032000b
:10308000110037005e009000e20f50000a0032008d
:103090000d0037003e0090000000ea003007980065
:1030a0000900370000002800be00900000804000aa
:1030b000300798000400370000002800be00900090
:1030c00001005000300798003e0090000080fa0098
:1030d00000000600404580008202b5008000eb0041
:1030e00000f0a7008080eb0080027800244580007b
:1030f0001301c0008407cc00e4458800a628b40072
:1031000001007800a8a8b400704580008402b500d2
:103110008000eb0000f0a7008080eb0080027800c8
:10312000544580001301c0008407cc00f44588009a
:10313000ac28b40001007800aea8b400000006007e
:10314000a628ef0040458800ac28ef0071458800b4
:10315000000006001200fa00d0428000604488009f
:103160000000280001002000600798007107980007
:103170006e009000fe009000021020000202b800d5
:103180000001eb000283b90005017800060141004f
:10319000031020000388b90000014100820278007a
:1031a0006407980075079800604480006101b900c9
:1031b0006e009000fe00900075f5070050448800f6
:1031c000404380009044880040438000cf80de0070
:1031d0004bf407000001be00204380003143800013
:1031e00014f50700008fbe0060448000cf80de0031
:1031f00043f4070052438000634380000df507004d
:1032000020079800310798002e019000be01900021
:103210001e00be0007f507003af5070040079800ba
:103220005107980000002800010020006007980066
:10323000710798006e009000fe00900002102000c0
:103240000202b8000001eb000283b900050178001a
:1032500006014100031020000388b900000141006d
:103260008202780064079800750798004e0190006c
:10327000de0190006e009000fe00900044f5070013
:1032800060079800710798006e019000fe019000a1
:10329000f0ff270001002000800f5100818f5900ae
:1032a0000300340010002000000f980005003700d4
:1032b0006e00900080448800050007000000eb00cd
:1032c000000f98000e0890000080fa000000060031
:1032d0000500fc0035098000b54488009828ef00ff
:1032e0009288bf0094a8b70000000600801f7800f5
:1032f000841f7800861f780030098000b444800065
:10330000b044880004035000060033008c08d50048
:1033100000025300080033006044800000035300a3
:10332000050037008c08d5000002430002003b0076
:103330006044800000034300060078009828b40031
:103340009428ed009408e20005003a009288bf003e
:1033500094a8b700c6448000d64488009828ef009f
:103360004f0378004f0278004f00780000000600fd
:10337000d6448000844480001301c1008404cc0042
:103380000402ea0074448800000006000000fa000d
:103390000000eb0020168800f09f23000016880034
:1033a0000000eb00501688000080eb00301688000b
:1033b0000000eb008016880050ff2f006016880088
:1033c0000000eb00b0168800f0702d009016880009
:1033d0000000eb00e0168800f0df2f00c016880028
:1033e0000000eb00101788000080eb00f01688004a
:1033f0000000eb004017880000ff2f002017880016
:083400000080fa000000060044
:020000040000fa
:0200000401f009
:04000000e7ff000016
:020000040000fa
:10000800461a0000461a0000461a0000461a000068
:10001800461a0000461a0000461a0000461a000058
:10002800461a0000461a0000461a0000461a000048
:10003800461a0000461a0000461a0000461a000038
:10004800461a0000461a0000461a0000a80d0000d3
:10005800461a0000461a0000461a0000461a000018
:10006800461a0000461a0000461a0000461a000008
:10007800461a0000461a0000461a0000461a0000f8
:10008800461a0000461a0000461a0000461a0000e8
:10009800461a0000461a0000461a0000461a0000d8
:1000a800461a0000461a0000461a0000461a0000c8
:1000b800461a0000461a0000461a0000461a0000b8
:1000c800461a0000461a0000461a0000461a0000a8
:1000d800461a0000461a0000461a0000461a000098
:1000e800461a0000461a0000461a0000461a000088
:0800f800461a0000461a000040
:020000040000fa
:10010800461a0000461a0000461a0000461a000067
:10011800461a0000461a0000461a0000461a000057
:10012800461a0000461a0000461a0000461a000047
:10013800461a0000461a0000461a0000461a000037
:10014800461a0000461a0000461a0000a80d0000d2
:10015800461a0000461a0000461a0000461a000017
:10016800461a0000461a0000461a0000461a000007
:10017800461a0000461a0000461a0000461a0000f7
:10018800461a0000461a0000461a0000461a0000e7
:10019800461a0000461a0000461a0000461a0000d7
:1001a800461a0000461a0000461a0000461a0000c7
:1001b800461a0000461a0000461a0000461a0000b7
:1001c800461a0000461a0000461a0000461a0000a7
:1001d800461a0000461a0000461a0000461a000097
:1001e800461a0000461a0000461a0000461a000087
:0801f800461a0000461a00003f
:020000040000fa
:1036000056650000637400006f72000020430000e4
:103610006f6e0000747200006f6c000020200000cc
:1036200000530000342d0000527500006e2f000082
:10363000537400006f700000202000002020000064
:1036400020000000525000004d3d000020200000ee
:10365000202000002020000020200000202000006a
:103660002020000000530000352d0000436c0000b6
:10367000732e0000204c0000702000005336000024
:103680002d320000780000002d0000002b0000000b
:10369000000000000000000000000000000000002a
:1036a000000000000000000000000000000000001a
:1036b000000000000000000000000000000000000a
:1036c00000000000000000000000000000000000fa
:1036d00000000000000000000000000000000000ea
:1036e00000000000000000000000000000000000da
:1036f00000000000000000000000000000000000ca
:1037000000000000000000000000000000000000b9
:1037100000000000000000000000000000000000a9
:103720000000000000000000000000000000000099
:103730000000000000000000000000000000000089
:103740000000000000000000000000000000000079
:103750000000000000000000000000000000000069
:103760000000000000000000000000000000000059
:103770000000000000000000000000000000000049
:103780000000000000000000000000000000000039
:103790000000000000000000000000000000000029
:1037a0000000000000000000000000000000000019
:1037b0000000000000000000000000000000000009
:1037c00000000000000000000000000000000000f9
:1037d00000000000000000000000000000000000e9
:1037e00000000000000000000000000000000000d9
:1037f00000000000000000000000000000000000c9
:1038000000000000480600008c0c0000c8120000f8
:10381000f91800001a1f0000282500001f2b0000c7
:10382000fc300000ba360000563c0000ce410000db
:103830001d470000404c000033510000f5550000ca
:10384000825a0000d75e0000f2620000cf660000de
:103850006d6a0000ca6d0000e2700000b5730000e0
:1038600041760000847800007d7a0000297c000009
:103870008a7d00009d7e0000627f0000d87f0000ee
:10388000ff7f0000d87f0000627f00009d7e000067
:103890008a7d0000297c00007d7a00008478000089
:1038a00041760000b5730000e2700000ca6d0000b0
:1038b0006d6a0000cf660000f2620000d75e000073
:1038c000825a0000f555000033510000404c0000c2
:1038d0001d470000ce410000563c0000ba360000f3
:1038e000fc3000001f2b0000282500001a1f0000dc
:1038f000f9180000c81200008c0c000048060000f7
:1039000000000000b8f9000074f3000038ed00007a
:1039100007e70000e6e00000d8da0000e1d400008c
:1039200004cf000046c90000aac3000032be000058
:10393000e3b80000c0b30000cdae00000baa000049
:103940007ea5000029a100000e9d00003199000015
:1039500093950000369200001e8f00004b8c0000f3
:10396000bf8900007c87000083850000d7830000aa
:1039700076820000638100009e80000028800000a5
:1039800001800000288000009e800000638100000c
:1039900076820000d7830000838500007c870000ca
:1039a000bf8900004b8c00001e8f00003692000083
:1039b00093950000319900000e9d000029a10000a0
:1039c0007ea500000baa0000cdae0000c0b3000031
:1039d000e3b8000032be0000aac3000046c90000e0
:1039e00004cf0000e1d40000d8da0000e6e00000d7
:1039f00007e7000038ed000074f30000b8f900009c
:103a000000200000e4120000fb0900001105000086
:103a10008b02000046010000a300000051000000de
:103a200029000000140000000a000000050000004a
:0c3a300003000000010000000100000085
:020000040000fa
:103408008409000008000000000000003c090000da
:103418003c00000002000000000000000000000066
:103428000000000000000000000000000000000094
:103438000000000000000000000000000000000084
:103448000000000000000000000000000000000074
:103458000000000000000000a00ff40001000000c0
:10346800000000000000000050080000ec00000010
:1034780000000000780900000c00000000000000b7
:043488000000000040
:020000040000fa
:04348c000000fe003e
:00000001FF
